{
  "_format": "hh-sol-artifact-1",
  "contractName": "nftTransferContract",
  "sourceName": "contracts/NftTransfer.sol",
  "abi": [
    {
      "inputs": [],
      "stateMutability": "nonpayable",
      "type": "constructor"
    },
    {
      "inputs": [],
      "name": "contractOwner",
      "outputs": [
        {
          "internalType": "address",
          "name": "",
          "type": "address"
        }
      ],
      "stateMutability": "view",
      "type": "function"
    },
    {
      "inputs": [
        {
          "internalType": "address",
          "name": "_nftAddress",
          "type": "address"
        },
        {
          "internalType": "uint256",
          "name": "_nftId",
          "type": "uint256"
        }
      ],
      "name": "transferNFT",
      "outputs": [],
      "stateMutability": "nonpayable",
      "type": "function"
    }
  ],
  "bytecode": "0x608060405234801561001057600080fd5b50336000806101000a81548173ffffffffffffffffffffffffffffffffffffffff021916908373ffffffffffffffffffffffffffffffffffffffff1602179055506105ea806100606000396000f3fe608060405234801561001057600080fd5b50600436106100365760003560e01c806394ab67fe1461003b578063ce606ee014610057575b600080fd5b610055600480360381019061005091906103be565b610075565b005b61005f610301565b60405161006c919061040d565b60405180910390f35b600082905060008173ffffffffffffffffffffffffffffffffffffffff16636352211e846040518263ffffffff1660e01b81526004016100b59190610437565b602060405180830381865afa1580156100d2573d6000803e3d6000fd5b505050506040513d601f19601f820116820180604052508101906100f69190610467565b90503373ffffffffffffffffffffffffffffffffffffffff168173ffffffffffffffffffffffffffffffffffffffff1614610166576040517f08c379a000000000000000000000000000000000000000000000000000000000815260040161015d906104f1565b60405180910390fd5b600160008273ffffffffffffffffffffffffffffffffffffffff1673ffffffffffffffffffffffffffffffffffffffff168152602001908152602001600020600084815260200190815260200160002060009054906101000a900460ff1615610204576040517f08c379a00000000000000000000000000000000000000000000000000000000081526004016101fb9061055d565b60405180910390fd5b8173ffffffffffffffffffffffffffffffffffffffff166342842e0e8260008054906101000a900473ffffffffffffffffffffffffffffffffffffffff16866040518463ffffffff1660e01b81526004016102619392919061057d565b600060405180830381600087803b15801561027b57600080fd5b505af115801561028f573d6000803e3d6000fd5b5050505060018060008373ffffffffffffffffffffffffffffffffffffffff1673ffffffffffffffffffffffffffffffffffffffff168152602001908152602001600020600085815260200190815260200160002060006101000a81548160ff02191690831515021790555050505050565b60008054906101000a900473ffffffffffffffffffffffffffffffffffffffff1681565b600080fd5b600073ffffffffffffffffffffffffffffffffffffffff82169050919050565b60006103558261032a565b9050919050565b6103658161034a565b811461037057600080fd5b50565b6000813590506103828161035c565b92915050565b6000819050919050565b61039b81610388565b81146103a657600080fd5b50565b6000813590506103b881610392565b92915050565b600080604083850312156103d5576103d4610325565b5b60006103e385828601610373565b92505060206103f4858286016103a9565b9150509250929050565b6104078161034a565b82525050565b600060208201905061042260008301846103fe565b92915050565b61043181610388565b82525050565b600060208201905061044c6000830184610428565b92915050565b6000815190506104618161035c565b92915050565b60006020828403121561047d5761047c610325565b5b600061048b84828501610452565b91505092915050565b600082825260208201905092915050565b7f53656e64657220646f6573206e6f74206f776e20746865204e46540000000000600082015250565b60006104db601b83610494565b91506104e6826104a5565b602082019050919050565b6000602082019050818103600083015261050a816104ce565b9050919050565b7f4e46542068617320616c7265616479206265656e207472616e73666572726564600082015250565b6000610547602083610494565b915061055282610511565b602082019050919050565b600060208201905081810360008301526105768161053a565b9050919050565b600060608201905061059260008301866103fe565b61059f60208301856103fe565b6105ac6040830184610428565b94935050505056fea26469706673582212204205095fe34b21432fda8395a9fb608c5590740f506bb93e05e2b6e0b6d746d364736f6c63430008180033",
  "linkReferences": {},
  "deployedLinkReferences": {}
}